:100000000C945D000C9485000C9485000C94850084
:100010000C9485000C9485000C9485000C9485004C
:100020000C9485000C9485000C9485000C9485003C
:100030000C9485000C9485000C9485000C9485002C
:100040000C948D030C9485000C94FD030C94D70341
:100050000C9485000C9485000C9485000C9485000C
:100060000C9485000C94850000000008000201003B
:100070000003040700000000000000000000000072
:10008000250028002B0000000000240027002A0083
:10009000040404040404040402020202020203032E
:1000A0000303030301020408102040800102040836
:1000B00010200102040810202F0411241FBECFEFCE
:1000C000D8E0DEBFCDBF11E0A0E0B1E0E4E6F6E1AC
:1000D00002C005900D92A037B107D9F722E0A0E742
:1000E000B1E001C01D92AA38B207E1F710E0CDE5FA
:1000F000D0E004C02197FE010E942A0BCC35D10725
:10010000C9F70E947A040C94300B0C94000090E024
:10011000FC01EC55FF4F249180579F4FFC018491C7
:10012000882399F090E0880F991FFC01EA57FF4F50
:10013000A591B491FC01E458FF4F859194918FB73C
:10014000F894EC91E22BEC938FBF0895FC01538D52
:10015000448D252F30E0842F90E0821B930B5417A1
:1001600010F0CF96089501970895FC01918D828D2E
:10017000981761F0A28DAE0FBF2FB11D5D968C91C7
:10018000928D9F5F9F73928F90E008958FEF9FEF06
:100190000895FC01918D828D981731F0828DE80FC2
:1001A000F11D858D90E008958FEF9FEF0895FC017C
:1001B000918D228D892F90E0805C9F4F821B910949
:1001C0008F7399270895FC01A48DA80FB92FB11D35
:1001D000A35ABF4F2C91848D90E001968F7399277D
:1001E000848FA689B7892C93A089B1898C9183705B
:1001F00080648C93938D848D981306C00288F38954
:10020000E02D80818F7D80830895EF92FF920F9380
:100210001F93CF93DF93EC0181E0888F9B8D8C8DB2
:1002200098131AC0E889F989808185FF15C09FB7A6
:10023000F894EE89FF896083E889F9898081837069
:10024000806480839FBF81E090E0DF91CF911F9118
:100250000F91FF90EF900895F62E0B8D10E00F5F39
:100260001F4F0F731127E02E8C8D8E110CC00FB60F
:1002700007FCFACFE889F989808185FFF5CFCE01A7
:100280000E94E300F1CFEB8DEC0FFD2FF11DE35A3F
:10029000FF4FF0829FB7F8940B8FEA89FB8980812A
:1002A0008062CFCFCF93DF93EC01888D8823B9F0A4
:1002B000AA89BB89E889F9898C9185FD03C0808171
:1002C00086FD0DC00FB607FCF7CF8C9185FFF2CFEE
:1002D000808185FFEDCFCE010E94E300E9CFDF9161
:1002E000CF91089585ED91E00E94D70021E0892B00
:1002F00009F420E0822F089580E090E0892B29F016
:100300000E94720181110C940000089590E0FC019C
:10031000E859FF4F2491FC01EC55FF4F3491FC014B
:10032000E057FF4FE491EE23C9F0222339F0233048
:1003300001F1A8F4213019F1223029F1F0E0EE0F9B
:10034000FF1FE458FF4FA591B4918FB7F894EC913B
:10035000611126C030953E233C938FBF089527300E
:10036000A9F02830C9F0243049F7809180008F7DB2
:1003700003C0809180008F7780938000DFCF84B5A9
:100380008F7784BDDBCF84B58F7DFBCF8091B000AC
:100390008F778093B000D2CF8091B0008F7DF9CF5E
:1003A0003E2BDACF8E3008F08E50877080648093B9
:1003B0007C0080917A00806480937A0080917A003A
:1003C00086FDFCCF809178009091790008953FB729
:1003D000F8948091D1019091D201A091D301B09174
:1003E000D40126B5A89B05C02F3F19F00196A11D89
:1003F000B11D3FBFBA2FA92F982F8827BC01CD016F
:10040000620F711D811D911D42E0660F771F881FCD
:10041000991F4A95D1F70895AF92BF92CF92DF927C
:10042000EF92FF920F931F93CF93DF936C017B01A9
:100430008B01040F151FEB015E01AE18BF08C0173A
:10044000D10759F06991D601ED91FC910190F081AD
:10045000E02DC6010995892B79F7C501DF91CF9170
:100460001F910F91FF90EF90DF90CF90BF90AF90D2
:100470000895089590E080E00895FC010190002027
:10048000E9F73197AF01481B590BBC0182E792E0B5
:100490000C940C02CF93DF93EC0160E08E810E94FC
:1004A000860161E08E810E94860160E08E810E945B
:1004B00086018BE891E00197F1F7DF91CF910895E4
:1004C000CF92DF92EF92FF920F931F93CF93DF9320
:1004D0006C017C0187E0E80EF11CD0E0C0E0062F43
:1004E00010E0B8010C2E02C0759567950A94E2F7EA
:1004F0006170F70181917F010E9486012196C430CD
:10050000D10579F7C601DF91CF911F910F91FF902F
:10051000EF90DF90CF900C944A02CF92DF92EF924F
:10052000FF920F931F93CF93DF93EC01F62E642F6E
:100530008C810E9486018D818F3F19F060E00E94BE
:1005400086010F2D10E08F8584FF25C06E0187E0A6
:10055000C80ED11CF12CE12CB8010E2C02C07595EF
:1005600067950A94E2F76170F60181916F010E942C
:100570008601FFEFEF1AFF0A88E0E816F10461F741
:10058000CE01DF91CF911F910F91FF90EF90DF90FF
:10059000CF900C944A02B80184E0759567958A95CE
:1005A000E1F7CE010E9460026F2DCE01DF91CF9165
:1005B0001F910F91FF90EF90DF90CF900C9460020D
:1005C00040E0682F82E792E00C948D02CF93DF9396
:1005D000613029F09091810298609093810260933C
:1005E00085021092860290E490938702809388029D
:1005F000805C80938902809176020E9487008091BE
:1006000077028F3F11F00E948700809178020E944C
:100610008700C2E7D2E09E012257324080918102DA
:1006200084FD0AC084E090E02196281739073CF445
:100630008E810E948700EFCF88E090E0F5CF8BE3BA
:100640009DE00197F1F760E0809176020E948601BB
:1006500060E0809178020E948601809177028F3F4E
:1006600019F060E00E9486018091810284FD39C00A
:1006700063E082E792E00E946002CBE4D6E4CE0120
:100680000197F1F763E082E792E00E946002219710
:10069000F1F763E082E792E00E94600283E592E076
:1006A0000197F1F762E082E792E00E946002809198
:1006B000810280620E94E00284E0809382028CE0EA
:1006C0000E94E00281E00E94E0028BE39FE101973B
:1006D000F1F782E08093830286E0DF91CF910C9462
:1006E000E00280620E94E0028BE496E40197F1F759
:1006F0008091810280620E94E00283E592E001978E
:10070000F1F78091810280620E94E002D0CF41E047
:100710000E948D0281E090E008951F920F920FB623
:100720000F9211242F933F938F939F93AF93BF9377
:100730008091CD019091CE01A091CF01B091D001D7
:100740003091CC0123E0230F2D3758F50196A11DE0
:10075000B11D2093CC018093CD019093CE01A09345
:10076000CF01B093D0018091D1019091D201A0919D
:10077000D301B091D4010196A11DB11D8093D10187
:100780009093D201A093D301B093D401BF91AF91C4
:100790009F918F913F912F910F900FBE0F901F90BF
:1007A000189526E8230F0296A11DB11DD2CF1F92E6
:1007B0000F920FB60F9211242F933F934F935F9395
:1007C0006F937F938F939F93AF93BF93EF93FF9319
:1007D00085ED91E00E94E300FF91EF91BF91AF9111
:1007E0009F918F917F916F915F914F913F912F9149
:1007F0000F900FBE0F901F9018951F920F920FB67B
:100800000F9211242F938F939F93EF93FF93E09177
:10081000E501F091E6018081E091EB01F091EC01BE
:1008200082FD1BC090818091EE018F5F8F732091BC
:10083000EF01821741F0E091EE01F0E0EB52FE4F44
:10084000958F8093EE01FF91EF919F918F912F9162
:100850000F900FBE0F901F9018958081F4CFE5ED9B
:10086000F1E01382128288EE93E0A0E0B0E084838E
:100870009583A683B78384E091E09183808385ECA0
:1008800090E09587848784EC90E09787868780EC5A
:1008900090E0918B808B81EC90E0938B828B82EC4B
:1008A00090E0958B848B86EC90E0978B868B118EF5
:1008B000128E138E148EE2E7F2E01382128286E12A
:1008C00091E0918380838DE084838FEF85838CE03A
:1008D00086838BE087838AE0808789E0818788E050
:1008E00082871386148615861686178661E080E156
:1008F0000C94E602CF93DF93CDB7DEB7AD970FB67A
:10090000F894DEBF0FBECDBF789484B5826084BDFD
:1009100084B5816084BD85B5826085BD85B5816003
:1009200085BD80916E00816080936E001092810081
:10093000809181008260809381008091810081603C
:1009400080938100809180008160809380008091FD
:10095000B10084608093B1008091B0008160809389
:10096000B00080917A00846080937A0080917A0050
:10097000826080937A0080917A00816080937A000F
:1009800080917A00806880937A001092C1008EE096
:1009900090E0909385018093840180E090E0ADE346
:1009A000B3E48093880190938901A0938A01B09366
:1009B0008B018AE999E9A9EDBFE3809390019093B7
:1009C0009101A0939201B093930180E090E0A0E0A8
:1009D000B4E48093A4019093A501A093A601B093E1
:1009E000A70164E084E10E94E602E1E080918502D3
:1009F0008111E0E0E195F0E0EE58FD4F84898068D8
:100A00000E94E0028EE191E00E943D02E0918502A9
:100A1000E23098F5E150F0E0EE58FD4F84898068AF
:100A20000E94E00285E391E00E943D022EE42093C3
:100A30007C000E94E7016B017C0132E0832E912C47
:100A4000A12CB12C0E94E7016C197D098E099F0928
:100A5000683E734081059105A8F338EEC30E33E07C
:100A6000D31EE11CF11C8A9489288A288B2839F02E
:100A7000812C912C54018394E5CFE1E0CCCF80917F
:100A80007A00806480937A0080917A0086FDFCCFA2
:100A9000809178002091790030E0322F2227032EB8
:100AA000000C440B550B282B60E070E381E190E0D3
:100AB0000E940B0B2AA73BA74CA75DA78FB7F89402
:100AC0008090CD019090CE01A090CF01B090D00148
:100AD0008FBF809184010E94D2019093C9018093BD
:100AE000C801BC01990F880B990B0E946C096B011E
:100AF0007C012DEC3CEC4CE054E40E94BD0887FFE7
:100B00000AC026E636E646EE53E4C701B6010E9467
:100B10001C0A1816A4F02FB7F8948091CD0190917B
:100B2000CE01A091CF01B091D0012FBF88199909B2
:100B3000AA09BB09813D9740A105B10550F28FB7C5
:100B4000F8942091CD013091CE014091CF01509188
:100B5000D0012EA33FA348A759A78FBF10E000E004
:100B6000312C212C2FB7F8948091CD019091CE019A
:100B7000A091CF01B091D0012FBF2EA13FA148A5D8
:100B800059A5821B930BA40BB50B803D9740A10583
:100B9000B10508F045C10F5F1F4F80919C019091F6
:100BA0009D01A0919E01B0919F0180939801909327
:100BB0009901A0939A01B0939B01809184010E94B6
:100BC000D2019093950180939401809186010E94B7
:100BD000D2017C0190939701809396014090A401EB
:100BE0005090A5016090A6017090A70140919401DA
:100BF000509195015BA34AA3BA01550F880B990B3D
:100C00000E946C094B015C01A30192010E945008F3
:100C100020E030E040E85AE30E94210AA30192015B
:100C20000E9451089B01AC012093A4013093A501BF
:100C30004093A6015093A701C501B4010E9450083A
:100C40004B015C0180929C0190929D01A0929E01BB
:100C5000B0929F014090A8015090A9016090AA0114
:100C60007090AB01B701FF0C880B990B0E946C09C7
:100C70006B017C01A30192010E94500820E030E04A
:100C800040E85AE30E94210AA30192010E94510800
:100C90009B01AC012093A8013093A9014093AA01C4
:100CA0005093AB01C701B6010E9450086B017C0153
:100CB000C092A001D092A101E092A201F092A30102
:100CC000A5019401C501B4010E94210A9B01AC0158
:100CD0002093B0013093B1014093B2015093B3011E
:100CE0006091B4017091B5018091B6019091B70106
:100CF0000E9451086093B4017093B5018093B601CE
:100D00009093B701A7019601C701B6010E94210A7D
:100D10009B01AC012093B8013093B9014093BA0113
:100D20005093BB016091BC017091BD018091BE01E7
:100D30009091BF010E9451086093BC017093BD0166
:100D40008093BE019093BF0140909801509099010B
:100D500060909A0170909B01A3019201C501B401BA
:100D60000E94500820919001309191014091920190
:100D7000509193010E94210AA30192010E945108FF
:100D80009B01AC012093AC013093AD014093AE01C7
:100D90005093AF01C701B6010E94210A9B01AC012B
:100DA0002093C0013093C1014093C2015093C3010D
:100DB0006091C4017091C5018091C6019091C701F5
:100DC0000E9451086093C4017093C5018093C601CD
:100DD0009093C7018091CB018093CA018091C80193
:100DE0009091C901EAA1FBA18E179F071CF01092F8
:100DF000CB0103C031E03093CB018091CB010130B6
:100E0000110511F48093CA019091CA01981719F045
:100E10004FEF241A340A34E12316310409F0A2CE2C
:100E20002AA53BA5B901330F880B990B0E946C09C9
:100E300020E030E04AE754E40E94C20820E030E0BD
:100E400040E85AE30E94210A4B015C01209188018D
:100E50003091890140918A0150918B010E94210AB1
:100E60006AA37BA38CA39DA3B80190E080E00E94BD
:100E70006A092B013C01AC019B016091B4017091A6
:100E8000B5018091B6019091B7010E94C2080E94FD
:100E9000940A9B01AC016AA17BA18CA19DA10E9437
:100EA000210A6B017C01C0927C01D0927D01E0920D
:100EB0007E01F0927F0120918C0130918D01409153
:100EC0008E0150918F01C501B4010E94210A6EA3C9
:100ED0007FA388A799A7A30192016091BC0170919B
:100EE000BD018091BE019091BF010E94C2080E9485
:100EF000940A9B01AC016EA17FA188A599A50E94CF
:100F0000210A4B015C018092800190928101A092A4
:100F10008201B09283012EA13FA148A559A56AA1E3
:100F20007BA18CA19DA10E94210A2091C401309136
:100F3000C5014091C6015091C7010E94210AA30139
:100F400092010E94C2082B013C0140927001509214
:100F500071016092720170927301A5019401C70141
:100F6000B6010E94210A9B01AC01209374013093C9
:100F700075014093760150937701C301B2010E943D
:100F8000C208609378017093790180937A019093FD
:100F90007B011092B4011092B5011092B60110922B
:100FA000B7011092BC011092BD011092BE011092C7
:100FB000BF011092C4011092C5011092C601109297
:100FC000C701C701B6010E9434096B01E091850297
:100FD000E43008F44BC0E3E0F0E0EE58FD4F8489C4
:100FE00080680E94E00286E591E00E943D020D2C9F
:100FF000000CEE08FF08F7FE3BC041E06DE282E71F
:1010000092E00E948D0222273327A9012C193D0965
:101010004E095F0919A28E010F5D1F4FCA01B90168
:101020002AE030E040E050E00E94E90A605DF8010B
:1010300062938F01211531054105510579F701159D
:10104000110519F0C8010E943D0284E691E00E945A
:101050003D0220E030E0232B09F4E8CC0E9472012D
:10106000882309F4E3CC0E940000E0CCE150B4CF27
:10107000A701960119A28E010F5D1F4FCA01B90188
:101080002AE030E040E050E00E94E90A605DF801AB
:1010900062938F01211531054105510579F7CFCFB5
:1010A0005058BB27AA270E9468080C94E2090E94A6
:1010B000D40938F00E94DB0920F039F49F3F19F47D
:1010C00026F40C94D1090EF4E095E7FB0C94CB09BF
:1010D000E92F0E94F30958F3BA17620773078407D0
:1010E000950720F079F4A6F50C94150A0EF4E09516
:1010F0000B2EBA2FA02D0B01B90190010C01CA01D2
:10110000A0011124FF27591B99F0593F50F4503E7C
:1011100068F11A16F040A22F232F342F4427585F6E
:10112000F3CF469537952795A795F0405395C9F786
:101130007EF41F16BA0B620B730B840BBAF091503E
:10114000A1F0FF0FBB1F661F771F881FC2F70EC0DD
:10115000BA0F621F731F841F48F4879577956795B0
:10116000B795F7959E3F08F0B0CF9395880F08F09C
:101170009927EE0F9795879508950E94A70908F47F
:1011800081E008950E94D6080C94E2090E94DB09D0
:1011900058F00E94D40940F029F45F3F29F00C94E4
:1011A000CB0951110C94160A0C94D1090E94F30931
:1011B00068F39923B1F3552391F3951B550BBB2786
:1011C000AA2762177307840738F09F5F5F4F220FCB
:1011D000331F441FAA1FA9F335D00E2E3AF0E0E8C2
:1011E00032D091505040E695001CCAF72BD0FE2F0C
:1011F00029D0660F771F881FBB1F261737074807A0
:10120000AB07B0E809F0BB0B802DBF01FF27935857
:101210005F4F3AF09E3F510578F00C94CB090C9447
:10122000160A5F3FE4F3983ED4F386957795679569
:10123000B795F7959F5FC9F7880F911D969587958C
:1012400097F90895E1E0660F771F881FBB1F6217AB
:1012500073078407BA0720F0621B730B840BBA0B69
:10126000EE1F88F7E09508950E943B096894B1113C
:101270000C94160A08950E94FB0988F09F5798F075
:10128000B92F9927B751B0F0E1F0660F771F881F8B
:10129000991F1AF0BA95C9F714C0B13091F00E94A5
:1012A000150AB1E008950C94150A672F782F882746
:1012B000B85F39F0B93FCCF3869577956795B395CC
:1012C000D9F73EF490958095709561957F4F8F4F3B
:1012D0009F4F0895E89409C097FB3EF49095809540
:1012E000709561957F4F8F4F9F4F9923A9F0F92FEC
:1012F00096E9BB279395F695879577956795B7956A
:10130000F111F8CFFAF4BB0F11F460FF1BC06F5F4F
:101310007F4F8F4F9F4F16C0882311F096E911C061
:10132000772321F09EE8872F762F05C0662371F082
:1013300096E8862F70E060E02AF09A95660F771F96
:10134000881FDAF7880F9695879597F90895990F72
:101350000008550FAA0BE0E8FEEF16161706E8077F
:10136000F907C0F012161306E407F50798F0621BA0
:10137000730B840B950B39F40A2661F0232B242B75
:10138000252B21F408950A2609F4A140A6958FEF94
:10139000811D811D089597F99F6780E870E060E0E6
:1013A00008959FEF80EC089500240A9416161706FE
:1013B00018060906089500240A9412161306140646
:1013C00005060895092E0394000C11F4882352F0A9
:1013D000BB0F40F4BF2B11F460FF04C06F5F7F4F61
:1013E0008F4F9F4F089557FD9058440F551F59F048
:1013F0005F3F71F04795880F97FB991F61F09F3F02
:1014000079F087950895121613061406551FF2CF2A
:101410004695F1DF08C0161617061806991FF1CF7A
:1014200086957105610508940895E894BB276627A1
:101430007727CB0197F908950E94A70908F48FEF49
:1014400008950E94340A0C94E2090E94D40938F0ED
:101450000E94DB0920F0952311F00C94CB090C9429
:10146000D10911240C94160A0E94F30970F3959F78
:10147000C1F3950F50E0551F629FF001729FBB278B
:10148000F00DB11D639FAA27F00DB11DAA1F649F27
:101490006627B00DA11D661F829F2227B00DA11DDA
:1014A000621F739FB00DA11D621F839FA00D611D60
:1014B000221F749F3327A00D611D231F849F600D81
:1014C000211D822F762F6A2F11249F5750409AF0AA
:1014D000F1F088234AF0EE0FFF1FBB1F661F771F36
:1014E000881F91505040A9F79E3F510580F00C9401
:1014F000CB090C94160A5F3FE4F3983ED4F386952B
:1015000077956795B795F795E7959F5FC1F7FE2BA0
:10151000880F911D9695879597F9089519F416F4FB
:101520000C94D1090C94D40A0E94FB09B8F39923B6
:10153000C9F3B6F39F57550B87FF0E94E20A0024B8
:10154000A0E640EA900180585695979528F4805C73
:10155000660F771F881F20F026173707480730F4DB
:10156000621B730B840B202931294A2BA6951794F3
:101570000794202531254A2758F7660F771F881FC3
:1015800020F026173707480730F4620B730B840BE3
:10159000200D311D411DA09581F7B901842F91586F
:1015A000880F9695879508959F3F31F0915020F4CC
:1015B000879577956795B795880F911D969587952F
:1015C00097F9089591505040660F771F881FD2F702
:1015D0000895A1E21A2EAA1BBB1BFD010DC0AA1F74
:1015E000BB1FEE1FFF1FA217B307E407F50720F08C
:1015F000A21BB30BE40BF50B661F771F881F991F07
:101600001A9469F760957095809590959B01AC014F
:10161000BD01CF010895052E97FB1EF400940E9492
:10162000220B57FD07D00E94E90A07FC03D04EF4B5
:101630000C94220B50954095309521953F4F4F4F7C
:101640005F4F089590958095709561957F4F8F4F6E
:101650009F4F0895EE0FFF1F0590F491E02D099420
:04166000F894FFCF2C
:101664000000000005010C02A6005201D700B500DD
:10167400C9000000000087030C023A02390220204E
:1016840054484520425249474854204C49474854FD
:101694002020202000204D454153555245204143F0
:1016A40020564F4C54414745202020202020202004
:1016B400202020202000202020564F4C5441474514
:1016C400203D200056202020202020202020000023
:00000001FF
